:020000040800F2
:103400000050002055650008956400089F6400087E
:10341000A9640008B3640008BD640008000000004F
:10342000000000000000000000000000C764000869
:10343000D364000800000000DF640008EB640008AB
:103440009D6500089D6500089D6500089D65000854
:103450009D6500089D6500089D6500089D65000844
:103460009D6500089D6500089D6500089D65000834
:103470009D6500089D6500089D6500089D65000824
:103480009D6500089D6500089D6500089D65000814
:10349000F96400089D6500089D6500089D650008A9
:1034A0009D6500080D6500089D6500089D65000884
:1034B0009D6500089D650008256500089D6500085C
:1034C0009D6500089D6500089D6500089D650008D4
:1034D0009D6500089D6500089D6500089D650008C4
:1034E0009D6500089D6500089D65000800000000BE
:1034F00000000000000000000000000000000000CC
:0C35000000000000000000005FF808F16F
:1035100010B5054C237833B9044B13B10448AFF30D
:1035200000800123237010BDD001002000000000A6
:103530009CF6000808B5034B1BB103490348AFF3E1
:10354000008008BD00000000D40100209CF60008A7
:10355000034613F8012B002AFBD1181A01387047D3
:1035600081F0004102E000BF83F0004330B54FEA34
:1035700041044FEA430594EA050F08BF90EA020FA1
:103580001FBF54EA000C55EA020C7FEA645C7FEA34
:10359000655C00F0E2804FEA5454D4EB5555B8BF57
:1035A0006D420CDD2C4480EA020281EA030382EAC8
:1035B000000083EA010180EA020281EA0303362D5A
:1035C00088BF30BD11F0004F4FEA01314FF4801C2D
:1035D0004CEA113102D0404261EB410113F0004F3F
:1035E0004FEA03334CEA133302D0524263EB4303F6
:1035F00094EA050F00F0A780A4F10104D5F1200E94
:103600000DDB02FA0EFC22FA05F2801841F10001EE
:1036100003FA0EF2801843FA05F359410EE0A5F1C2
:1036200020050EF1200E012A03FA0EFC28BF4CF0F3
:10363000020C43FA05F3C01851EBE37101F00045A9
:1036400007D54FF0000EDCF1000C7EEB00006EEBB6
:103650000101B1F5801F1BD3B1F5001F0CD3490840
:103660005FEA30004FEA3C0C04F101044FEA445297
:1036700012F5800F80F09A80BCF1004F08BF5FEA1E
:10368000500C50F1000041EB045141EA050130BDFE
:103690005FEA4C0C404141EB0101013C28BFB1F510
:1036A000801FE9D291F0000F04BF01460020B1FA5B
:1036B00081F308BF2033A3F10B03B3F120020CDA2E
:1036C0000C3208DD02F1140CC2F10C0201FA0CF00C
:1036D00021FA02F10CE002F11402D8BFC2F1200C71
:1036E00001FA02F120FA0CFCDCBF41EA0C01904027
:1036F000E41AA2BF01EB0451294330BD6FEA040470
:103700001F3C1CDA0C340EDC04F11404C4F120025A
:1037100020FA04F001FA02F340EA030021FA04F36C
:1037200045EA030130BDC4F10C04C4F1200220FAC3
:1037300002F001FA04F340EA0300294630BD21FA01
:1037400004F0294630BD94F0000F83F4801306BFC7
:1037500081F480110134013D4EE77FEA645C18BFBB
:103760007FEA655C29D094EA050F08BF90EA020F52
:1037700005D054EA000C04BF1946104630BD91EA4A
:10378000030F1EBF0021002030BD5FEA545C05D14D
:103790004000494128BF41F0004130BD14F580048C
:1037A0003CBF01F5801130BD01F0004545F0FE4100
:1037B00041F470014FF0000030BD7FEA645C1ABF35
:1037C000194610467FEA655C1CBF0B46024650EA6C
:1037D000013406BF52EA033591EA030F41F4002198
:1037E00030BD00BF90F0000F04BF0021704730B51E
:1037F0004FF4806404F132044FF000054FF00001F3
:1038000050E700BF90F0000F04BF0021704730B5B3
:103810004FF4806404F1320410F0004548BF404288
:103820004FF000013EE700BF42004FEAE2014FEADD
:1038300031014FEA02701FBF12F07F4393F07F4FB8
:1038400081F06051704732F07F4208BF704793F0BB
:103850007F4F04BF41F40021704730B54FF46074CE
:1038600001F0004521F000411CE700BF50EA0102D1
:1038700008BF704730B54FF000050AE050EA01027A
:1038800008BF704730B511F0004502D5404261EBEA
:1038900041014FF4806404F132045FEA915C3FF42B
:1038A000D8AE4FF003025FEADC0C18BF03325FEAC8
:1038B000DC0C18BF033202EBDC02C2F1200300FA79
:1038C00003FC20FA02F001FA03FE40EA0E0021FA9E
:1038D00002F11444BDE600BF4FF0FF3C06E000BF1C
:1038E0004FF0010C02E000BF4FF0010C4DF804CD89
:1038F0004FEA410C7FEA6C5C4FEA430C18BF7FEA49
:103900006C5C1BD001B050EA410C0CBF52EA430C76
:1039100091EA030F02BF90EA020F0020704710F1F6
:10392000000F91EA030F58BF994208BF90422CBF85
:10393000D8176FEAE37040F0010070474FEA410C7E
:103940007FEA6C5C02D150EA013C07D14FEA430C9C
:103950007FEA6C5CD6D152EA033CD3D05DF8040B0D
:10396000704700BF8446104662468C46194663463F
:1039700000E000BF01B5FFF7B7FF002848BF10F116
:10398000000F01BD4DF808EDFFF7F4FF0CBF01205B
:1039900000205DF808FB00BF4DF808EDFFF7EAFFD7
:1039A00034BF012000205DF808FB00BF4DF808ED92
:1039B000FFF7E0FF94BF012000205DF808FB00BF87
:1039C0004DF808EDFFF7CEFF94BF012000205DF811
:1039D00008FB00BF4DF808EDFFF7C4FF34BF01201E
:1039E00000205DF808FB00BF4FEA4102B2F1E0435E
:1039F00024BFB3F5001CDCF1FE5C0DD901F0004CD6
:103A00004FEAC0024CEA5070B2F1004F40EB830025
:103A100008BF20F00100704711F0804F21D113F151
:103A20003872BCBF01F00040704741F480114FEA8A
:103A30005252C2F11802C2F1200C10FA0CF320FA13
:103A400002F018BF40F001004FEAC1234FEAD32330
:103A500003FA0CFC40EA0C0023FA02F34FEA43039A
:103A6000CCE77FEA625307D150EA01331EBF4FF023
:103A7000FE4040F44000704701F0004040F0FE403E
:103A800040F40000704700BF80F0004002E000BF3B
:103A900081F0004142001FBF5FEA410392EA030F39
:103AA0007FEA226C7FEA236C6AD04FEA1262D2EB83
:103AB0001363C1BFD218414048404140B8BF5B4288
:103AC000192B88BF704710F0004F40F4000020F021
:103AD0007F4018BF404211F0004F41F4000121F037
:103AE0007F4118BF494292EA030F3FD0A2F1010281
:103AF00041FA03FC10EB0C00C3F1200301FA03F1BF
:103B000000F0004302D5494260EB4000B0F5000FE1
:103B100013D3B0F1807F06D340084FEA310102F1A0
:103B20000102FE2A51D2B1F1004F40EBC25008BF52
:103B300020F0010040EA03007047490040EB00001C
:103B4000013A28BFB0F5000FEDD2B0FA80FCACF11D
:103B5000080CB2EB0C0200FA0CF0AABF00EBC2504A
:103B600052421843BCBFD0401843704792F0000F38
:103B700081F4000106BF80F400000132013BB5E78B
:103B80004FEA41037FEA226C18BF7FEA236C21D001
:103B900092EA030F04D092F0000F08BF0846704766
:103BA00090EA010F1CBF0020704712F07F4F04D134
:103BB000400028BF40F00040704712F100723CBF47
:103BC00000F50000704700F0004343F0FE4040F471
:103BD000000070477FEA226216BF08467FEA23632F
:103BE0000146420206BF5FEA412390EA010F40F41A
:103BF000800070474FF0000304E000BF10F0004366
:103C000048BF40425FEA000C08BF704743F096434C
:103C100001464FF000001CE050EA010208BF704767
:103C20004FF000030AE000BF50EA010208BF7047EE
:103C300011F0004302D5404261EB41015FEA010C03
:103C400002BF84460146002043F0B64308BFA3F1FB
:103C50008053A3F50003BCFA8CF2083AA3EBC253DD
:103C600010DB01FA02FC634400FA02FCC2F12002FC
:103C7000BCF1004F20FA02F243EB020008BF20F033
:103C80000100704702F1200201FA02FCC2F1200299
:103C900050EA4C0021FA02F243EB020008BF20EA8E
:103CA000DC7070474FF0FF0C1CEAD0521EBF1CEABC
:103CB000D15392EA0C0F93EA0C0F6FD01A4480EAAA
:103CC000010C400218BF5FEA41211ED04FF0006393
:103CD00043EA501043EA5111A0FB01310CF00040BF
:103CE000B1F5000F3EBF490041EAD3715B0040EAE5
:103CF000010062F17F02FD2A1DD8B3F1004F40EBB5
:103D0000C25008BF20F00100704790F0000F0CF087
:103D1000004C08BF49024CEA502040EA51207F3A4B
:103D2000C2BFD2F1FF0340EAC250704740F4000026
:103D30004FF00003013A5DDC12F1190FDCBF00F017
:103D400000407047C2F10002410021FA02F1C2F1C5
:103D5000200200FA02FC5FEA310040F1000053EA61
:103D60004C0308BF20EADC70704792F0000F00F0AF
:103D7000004C02BF400010F4000F013AF9D040EAB5
:103D80000C0093F0000F01F0004C02BF490011F449
:103D9000000F013BF9D041EA0C018FE70CEAD15347
:103DA00092EA0C0F18BF93EA0C0F0AD030F0004CC7
:103DB00018BF31F0004CD8D180EA010000F000407B
:103DC000704790F0000F17BF90F0004F084691F039
:103DD000000F91F0004F14D092EA0C0F01D1420273
:103DE0000FD193EA0C0F03D14B0218BF084608D13C
:103DF00080EA010000F0004040F0FE4040F4000086
:103E0000704740F0FE4040F4400070474FF0FF0C18
:103E10001CEAD0521EBF1CEAD15392EA0C0F93EA5F
:103E20000C0F69D0A2EB030280EA010C49024FEAB1
:103E3000402037D04FF0805343EA111143EA10136A
:103E40000CF000408B4238BF5B0042F17D024FF422
:103E5000000C8B4224BF5B1A40EA0C00B3EB510FFD
:103E600024BFA3EB510340EA5C00B3EB910F24BFE6
:103E7000A3EB910340EA9C00B3EBD10F24BFA3EB6B
:103E8000D10340EADC001B0118BF5FEA1C1CE0D133
:103E9000FD2A3FF650AF8B4240EBC25008BF20F0E6
:103EA000010070470CF0004C4CEA50207F32C2BF3A
:103EB000D2F1FF0340EAC250704740F400004FF0D7
:103EC0000003013A37E792F0000F00F0004C02BF08
:103ED000400010F4000F013AF9D040EA0C0093F0D2
:103EE000000F01F0004C02BF490011F4000F013B2C
:103EF000F9D041EA0C0195E70CEAD15392EA0C0F94
:103F000008D142027FF47DAF93EA0C0F7FF470AFCB
:103F1000084676E793EA0C0F04D14B023FF44CAF0E
:103F200008466EE730F0004C18BF31F0004CCAD1A3
:103F300030F000427FF45CAF31F000437FF43CAFDF
:103F40005FE700BF4FF0FF3C06E000BF4FF0010C01
:103F500002E000BF4FF0010C4DF804CD4FEA4002E3
:103F60004FEA41037FEA226C18BF7FEA236C11D02D
:103F700001B052EA530C18BF90EA010F58BFB2EBE0
:103F8000030088BFC81738BF6FEAE17018BF40F060
:103F9000010070477FEA226C02D15FEA402C05D114
:103FA0007FEA236CE4D15FEA412CE1D05DF8040B99
:103FB000704700BF844608466146FFE70FB5FFF72C
:103FC000C9FF002848BF10F1000F0FBD4DF808EDE4
:103FD000FFF7F4FF0CBF012000205DF808FB00BFD5
:103FE0004DF808EDFFF7EAFF34BF012000205DF82F
:103FF00008FB00BF4DF808EDFFF7E0FF94BF01207C
:1040000000205DF808FB00BF4DF808EDFFF7D2FF78
:1040100094BF012000205DF808FB00BF4DF808EDBB
:10402000FFF7C8FF34BF012000205DF808FB00BF88
:104030004FEA4002B2F1FE4F0FD34FF09E03B3EBB5
:1040400012620DD94FEA002343F0004310F0004FF5
:1040500023FA02F018BF404270474FF0000070474B
:1040600012F1610F01D1420205D110F0004008BFEA
:104070006FF0004070474FF00000704780B582B08D
:1040800000AF7860054B1B681946786802F068FE3F
:10409000034618460837BD4680BD00BF70020020A9
:1040A00080B584B000AF786039603968786802F014
:1040B000DFFD0346FB73FB7B002B01D1012305E0F1
:1040C000FB7B012B01D1002300E0002318461037B1
:1040D000BD4680BD80B584B000AF78600023FB6032
:1040E000786802F009FEB860BB68032B0FD0BB688C
:1040F000032B0FD8BB68012B03D0BB68022B03D066
:1041000008E00123FB6008E00223FB6005E00323D5
:10411000FB6002E00023FB6000BFFB68184610371D
:10412000BD4680BD80B584B000AFF860B96013466D
:10413000FB71FB79BA68F968034800F007F8034699
:1041400018461037BD4680BD140B002080B586B0E0
:1041500000AFF860B9607A60FB700023FB75F86807
:10416000FFF7B8FF0346002B13D1F868FFF786FF6F
:104170000346B3F1FF3F0CD10123FB75164B1B68BF
:104180001946F868FFF78CFF0346012B01D0022384
:10419000FB75124ABB685360104B0022DA600F4B6C
:1041A00004229A60FB780D4A13610C4B00221A75A9
:1041B000094B7A680949F86802F080FC0346002B35
:1041C00002D00023FB7501E00323FB75FB7D18463D
:1041D0001837BD4680BD00BF700200207402002069
:1041E00080B584B000AF78609B4B9C4A00219C480E
:1041F00002F0D9FD0346002B40F04182974B5B68EB
:10420000FB60964B1B69BB60FB6803F0F403F42B67
:1042100000F03782FB68934A934200F0F280FB681B
:10422000904A934200F22282FB688F4A934200F048
:104230009280FB688C4A934200F21882FB688B4A9A
:10424000934200F08280FB68884A934200F20E821B
:10425000FB68874A934200F0D080FB68844A93420F
:1042600000F20482FB68834A934200F08E80FB6870
:10427000804A934200F2FA81FB687F4A934256D00B
:10428000FB687D4A934200F2F181FB687B4A9342CE
:1042900051D0FB68794A934200F2E881FB68784A82
:1042A000934200F0B780FB68754A934200F2DE81CA
:1042B000FB68744A934264D0FB68724A934200F2EE
:1042C000D581FB68704A93423BD0FB686E4A9342AB
:1042D00000F2CC81FB686D4A934248D0FB686B4A80
:1042E000934200F2C381FB68694A934245D0FB6860
:1042F000674A934200F2BA81FB68664A934230D023
:10430000FB68644A934200F2B181FB68624A9342BF
:104310003FD0FB68604A934200F2A881FB685F4A85
:10432000934274D0FB685E4A934236D09EE14A487D
:1043300000F0E0FE9BE1BA68F968474800F0BAFE79
:1043400095E1454800F056FE91E1BA68F9684248A7
:1043500000F00AFF8BE1BA68F9683F4800F024FFDB
:1043600085E1BA68F9683C4800F088FC7FE1BA68EA
:10437000F968394800F07CFD79E1374800F0DAFC53
:1043800075E1354800F0E2FD71E1334800F024FFAB
:104390006DE1314800F054FF69E1424B08221A7088
:1043A0002D4B1A78404B1A70404B01221A603D4B3E
:1043B0001B78082B0AD13C4B1B780B2B06D13C4BAE
:1043C00001221A603B4B00221A600DE0354B1B782E
:1043D000082B09D1344B1B780C2B05D1364B01220D
:1043E0001A60364B00221A602E4B1B782E4A127828
:1043F0001146184600F0EAF939E1174800F038FF95
:1044000035E1154B1B781A462D4B1A602FE100F051
:104410003FFF2CE1104B1A78224B1A700E4B5A7842
:10442000214B1A701F4B1B78062B5CD1254B0022A9
:104430001A60254B00221A60244B1B68184609F0AD
:10444000F9FB234B01221A60224B1B68002B43D13E
:10445000204B01221A6046E0A80200208C020020B6
:10446000140B0020FAFC6008FAFC5108FAFC500812
:10447000FAFC1408FAFC1208FAFC1108FAFC1008FD
:10448000FAFC0F08FAFC0E08FAFC0D08FAFC0B08FF
:10449000FAFC0A08FAFC0908FBFC0200FAFC01001D
:1044A000FBFC0100C809002039050020BC090020E0
:1044B000980400200009002068040020580400200F
:1044C000B403002034050020B4040020C80B0020F1
:1044D0007C050020C80300206C4B1B68012B02D117
:1044E0006A4B00221A606A4B1B78072B1BD1694B61
:1044F00000221A60684B00221A60684B1B78022B5E
:1045000011D1674B01221A60604B1B68002B03D14D
:104510005E4B01221A6006E05C4B1B68012B02D146
:104520005A4B00221A605A4B1B78012B11D15D4B5C
:1045300001221A60574B00221A60574B00221A6062
:10454000594B00221A60594B00221A700AF098FE4B
:1045500083E04F4B1B78032B1BD14E4B01221A607B
:10456000504B00221A60524B00221A60514B00221D
:104570001A60514B00221A60504B00221A60504BB7
:1045800000221A604F4BB4221A604F4B01221A606E
:1045900063E03F4B1B780A2B0BD1404B1B78022B5F
:1045A00007D14A4B1B78012B57D1494B01221A6086
:1045B00053E0374B1B780A2B0BD1384B1B78032B5E
:1045C00007D1424B1B78012B47D1424B01221A6085
:1045D00043E02F4B1B780A2B0BD1304B1B78012B60
:1045E00007D13A4B1B78012B37D13B4B01221A6084
:1045F00033E0274B1B78022B07D1284B1B78012B6C
:1046000003D12C4B01221A6027E0214B1B78022B8F
:1046100007D1224B1B78022B03D1254B01221A60B4
:104620001BE01B4B1B78082B0AD11C4B1B780D2B56
:1046300006D1174B04221A70284B01221A600CE095
:10464000134B1B780E2B08D1244B00221A60244BED
:1046500000221A600E4B04221A70224B1B78214A4A
:1046600052781146184600F0B1F800E000BFBB6870
:10467000DBB21A461B49F86801F03AFD02E000BFC0
:1046800000E000BF1037BD4680BD00BFC80300205A
:10469000C809002034050020B4040020390500209A
:1046A0007C0500204007002014000020AA050020FF
:1046B00050040020500A002044050020EC05002092
:1046C000C00300202C000020180000203807002024
:1046D0002805002078070020C8040020A00400203E
:1046E0009C040020A802002080B500AF174B184A98
:1046F0001A60164B08225A60144B00229A60134B22
:104700000022DA60114B4FF440221A610F4B4FF434
:1047100080125A610D4B00221A760C4B01225A76F8
:104720000A4B00229A76094B0122DA76074B0022C7
:104730001A77064B00225A77044801F0B7FF034668
:10474000002B01D001F0EEFB00BF80BD140B002058
:104750000064004080B58AB000AF3B4628220021AB
:1047600018460AF085FF00237B610023BB6101230B
:10477000FB6100233B6000237B600023BB600023C0
:10478000FB6000233B6101233B620E237B623B46BF
:104790001946034802F085F800BF2837BD4680BDA2
:1047A000140B002080B500AF024802F043F900BFAF
:1047B00080BD00BF140B002080B500AFFFF794FF51
:1047C000FFF7C8FFFFF7EEFF00BF80BD80B584B0E4
:1047D00000AF03460A46FB711346BB71FB793B727F
:1047E000BB797B7207F10802082304490448FFF7EC
:1047F000ADFC00BF1037BD4680BD00BFFAFC0F08FE
:10480000140B002080B582B000AF78607B681A4A34
:10481000934228D07B68184A934227D87B68174A6E
:1048200093421DD07B68154A93421FD87B68144A77
:10483000934212D07B68124A934217D87B68114A80
:10484000934204D07B68104A934203D00EE000F0FC
:104850001DF80CE000F094F909E000F013F906E00F
:1048600000F092F803E000F06BFC00E000BF00BF36
:104870000837BD4680BD00BFFAFC1308FAFC0708E4
:10488000FAFC0608FAFC0408FAFC050898B500AF23
:10489000314B00221A60314B9B7A1A46304B1A601A
:1048A0002E4B1B789AB22F4B9A812C4B5B789AB285
:1048B0002C4B5A81294B9B789AB22A4B1A81274B51
:1048C000DB789AB2274BDA80244B1B799AB2254BBE
:1048D0009A80224B5B799AB2224B5A801F4B9B796C
:1048E0009AB2204B1A801D4BDB791A461E491F488D
:1048F00009F076F8194B1B7A1A461B491C4809F037
:104900006FF8164B5B7A1A4617491A4809F068F88F
:10491000124BDB681846FFF78BFB04460F4BDB6836
:1049200015491846FFF7BEF903461846FFF780FB06
:104930000146124B83FB01239A10CB17D21A134660
:104940009B0013445B00CA1A134622460C490D48CB
:1049500009F046F800BF98BD6C070020EC0100206C
:10496000AC03002040090020B4F6000878090020BC
:104970002008002050050020000020416766666680
:10498000B8F600085008002098B500AF314B01225E
:104990001A60314B9B7A1A46304B1A602E4B1B78AB
:1049A0009AB22F4B9A812C4B5B789AB22C4B5A813E
:1049B000294B9B789AB22A4B1A81274BDB789AB203
:1049C000274BDA80244B1B799AB2254B9A80224BD5
:1049D0005B799AB2224B5A801F4B9B799AB2204B3B
:1049E0001A801D4BDB791A461E491F4808F0F8FF54
:1049F000194B1B7A1A461B491C4808F0F1FF164B4D
:104A00005B7A1A4617491A4808F0EAFF124BDB682E
:104A10001846FFF70DFB04460F4BDB681549184697
:104A2000FFF740F903461846FFF702FB0146124B19
:104A300083FB01239A10CB17D21A13469B00134411
:104A40005B00CA1A134622460C490D4808F0C8FFFD
:104A500000BF98BD6C070020FC010020AC030020C3
:104A600040090020B4F60008780900202008002042
:104A7000500500200000204167666666B8F6000811
:104A80005008002098B500AF314B02221A60314B1C
:104A90009B7A1A46304B1A602E4B1B789AB22F4BDA
:104AA0009A812C4B5B789AB22C4B5A81294B9B787C
:104AB0009AB22A4B1A81274BDB789AB2274BDA80BD
:104AC000244B1B799AB2254B9A80224B5B799AB280
:104AD000224B5A801F4B9B799AB2204B1A801D4B58
:104AE000DB791A461E491F4808F07AFF194B1B7ADA
:104AF0001A461B491C4808F073FF164B5B7A1A468E
:104B000017491A4808F06CFF124BDB681846FFF78C
:104B10008FFA04460F4BDB6815491846FFF7C2F8B9
:104B200003461846FFF784FA0146124B83FB012324
:104B30009A10CB17D21A13469B0013445B00CA1A73
:104B4000134622460C490D4808F04AFF00BF98BDA5
:104B50006C0700200C020020AC030020400900205C
:104B6000B4F6000878090020200800205005002035
:104B70000000204167666666B8F60008500800200D
:104B800098B500AF314B03221A60314B9B7A1A461D
:104B9000304B1A602E4B1B789AB22F4B9A812C4BBC
:104BA0005B789AB22C4B5A81294B9B789AB22A4B4C
:104BB0001A81274BDB789AB2274BDA80244B1B797A
:104BC0009AB2254B9A80224B5B799AB2224B5A803B
:104BD0001F4B9B799AB2204B1A801D4BDB791A46EA
:104BE0001E491F4808F0FCFE194B1B7A1A461B4948
:104BF0001C4808F0F5FE164B5B7A1A4617491A480E
:104C000008F0EEFE124BDB681846FFF711FA044677
:104C10000F4BDB6815491846FFF744F80346184662
:104C2000FFF706FA0146124B83FB01239A10CB17BC
:104C3000D21A13469B0013445B00CA1A134622463D
:104C40000C490D4808F0CCFE00BF98BD6C07002051
:104C50001C020020AC03002040090020B4F600082C
:104C60007809002020080020500500200000204185
:104C700067666666B8F600085008002080B586B002
:104C800002AFF860B9607A601E4BFA68106851682C
:104C900003C3FB6807331B78184600F03BFD194B34
:104CA0009B791A46184B1949194808F099FE154B7B
:104CB0001B781A461749184808F092FE114B5B788A
:104CC0001A461449154808F08BFE0E4B1B781A46FD
:104CD0000C4B5B7819460B4B9B780C2B07D1094B7F
:104CE000DB78002B01D10E4B02E00E4B00E00E4BA7
:104CF00000930B460D490E4808F072FE00BF1037B6
:104D0000BD4680BD2C020020540A0020D8F60008C1
:104D100088030020E0F60008A0070020840500209A
:104D2000E8F60008ECF60008F0F60008F4F60008D3
:104D30006409002080B584B002AF78603E4B7A6889
:104D4000106818603C4B5A783C4B1A703A4BDB7831
:104D50001A463B4B1A60384B5B781A4639493A4839
:104D600008F03EFE344B5B781A463849384808F064
:104D700037FE314B9A78374B1A702F4B9B78364A57
:104D8000A2FB03235B09DAB2344B1A702A4B9A78E0
:104D9000314BA3FB021359090B461B015B1A9B0005
:104DA000D31ADAB22E4B1A70234B9B783C2B12D8B5
:104DB000214B9B78002B0ED01F4B9B781A461E4B25
:104DC0009B78012B01D9732300E020232549264835
:104DD00008F006FE2CE0184B9B783C2B28D9164B8C
:104DE0009B781D4AA2FB03235B09DAB21B4B1A70A6
:104DF000114B9A78184BA3FB021359090B461B0160
:104E00005B1A9B00D31ADAB2154B1A70134B1B783E
:104E10001946124B1B78012B01D9732300E0202384
:104E20000F4A127800920A4610490F4808F0D8FD40
:104E300000BF0837BD4680BD340200204407002073
:104E400044080020B4F600087C07002004F700089E
:104E5000CC090020D0070020898888884E040020D3
:104E6000640400200CF700080405002018F700086F
:104E700080B485B000AFF860B9607A60274B1B78CA
:104E8000062B45D0254B1B78072B41D0244BFA68C5
:104E90001068516803C3224B1A78224B1A70204BBA
:104EA000DA78214B1A701E4B9A78204B1A701C4BE3
:104EB0005B791A461E4B1A60194B1B791A461D4B1B
:104EC0001A60174B5A781C4B1A70154B9A791B4B6A
:104ED0001A70134BDB79DB01194A82FB03121A4467
:104EE000D211DB17D31A174A1360114B1B68012B21
:104EF00003D1104B1B68002B07D00E4B1B68002BF7
:104F000001D0022302E0002300E001230E4A1360D7
:104F100000BF1437BD4680BC704700BFC8090020E1
:104F20003802002038070020960900200E080020D3
:104F3000BC030020AC09002045070020A409002084
:104F400081808080000000209809002080B582B018
:104F500000AF78601C4B7A681068186092889A805D
:104F6000194BDB781A46194B1A60174B1B781A46F7
:104F7000174B1A60144B5B781A46164B1A60124B8B
:104F80001B791A46144B1A60134B1B68022B05D170
:104F9000124B01221A60124BB4221A600A4B5B7941
:104FA0001A46104B1A60084B9B781A460E4B1A6033
:104FB0000D4B1B681A460D490D4808F011FD00BF46
:104FC0000837BD4680BD00BF40020020FC0800201D
:104FD000600400200C0700209C09002068070020C6
:104FE0002C00002010080020C4040020B4F60008A3
:104FF0007C03002090B583B000AF78607B681B68AD
:10500000264A13607B685B68244A5360234B1B6805
:105010001846FFF70DF80446204B1B682049184638
:10502000FEF740FE03461846FFF702F801461D4B07
:1050300083FB01239A10CB17D21A13469B0013440B
:105040005B00CA1A134622461749184808F0C8FCE4
:10505000124B5B681846FEF7EBFF04460F4B5B688C
:105060000F491846FEF71EFE03461846FEF7E0FFFE
:1050700001460C4B83FB01239A10CB17D21A13461F
:105080009B0013445B00CA1A13462246064908488F
:1050900008F0A6FC00BF0C37BD4690BD48020020BA
:1050A0000000204167666666B8F600080409002023
:1050B000640A002080B584B000AFF860B9607A60FF
:1050C000FB681B68084A13601E22002107480AF08B
:1050D000CFFA054B1B681A460549044808F080FCC6
:1050E00000BF1037BD4680BD500200208C05002057
:1050F0002CF7000880B582B000AF78607B681B6831
:105100000C4A13607B681A790A4B5A717B685A798A
:10511000084B1A711E22002107480AF0A9FA054B14
:105120001B681A460549044808F05AFC00BF0837B6
:10513000BD4680BD54020020F405002034F700086D
:1051400080B500AFC822002104480AF091FA044A51
:105150000449024808F044FC00BF80BD400600201E
:10516000B0020020D4F6000880B584B000AFF8602B
:10517000B9607A600949FB68D3E90023C1E90023DB
:10518000064A7B68134400221A70044A0449054801
:1051900008F026FC00BF1037BD4680BDD4050020B6
:1051A000C4F60008CC04002080B485B000AFF860DD
:1051B000B9607A600749FB68D3E90023C1E900239D
:1051C000044A7B68134400221A7000BF1437BD469E
:1051D00080BC70471406002080B582B000AF7860B4
:1051E0007B681B781A46104B1A607B6801331B786A
:1051F0001A460E4B1A607B6802331B781A460C4B1A
:105200001A60094B1B681A460A490B4808F0E8FB6C
:10521000064B1B681A460749084808F0E1FB00BF27
:105220000837BD4680BD00BF480800209C0700200D
:1052300074050020B4F60008480700206C04002024
:1052400080B483B000AF78607B681B781A46064B49
:105250001A607B6801331B781A46044B1A6000BF42
:105260000C37BD4680BC7047B003002014080020F6
:1052700080B483B000AF78607B681B781A46034B1C
:105280001A6000BF0C37BD4680BC7047BC040020CC
:1052900080B586B000AF02F099FA0023BB600D4BD9
:1052A0003B6101237B613A1D07F108031146184653
:1052B00002F074FB4FF001024FF000030549022099
:1052C00002F014FA02F0A8FA02F0B9F900BF183798
:1052D000BD4680BD0030000880B582B000AF786068
:1052E0007B68124A934240F0F181114B1B68012BFD
:1052F0002CD1104B1B6801330E4A13600E4B002259
:105300001A600E4B00221A600A4B1B68B3F5FA6F45
:1053100048D3084B00221A60054B00221A6008236C
:10532000074A08490848FEF711FF3BE0980A0020A9
:105330004007002044050020B4040020340500206C
:1053400004000020FCFA0210140B00209A4B1B688A
:10535000012B27D1994B1B680133984A1360984B56
:1053600000221A60974B00221A60944B1B68B3F519
:105370007A7F05D1944B01221A60944B01221A6066
:10538000934B1B68272B0DDC8C4B00221A608A4B39
:1053900000221A6009F05EFF8B4B00221A608C4BD2
:1053A000FA221A608B4B1B68012B12D18A4B1B68A7
:1053B0000133894A1360884B1B68B3F5FA6F08D331
:1053C000854B00221A60834B00221A60834B042213
:1053D0001A70834B1B68012B16D1824B1B6801335B
:1053E000804A13607F4B1B68B3F5FA6F0CD37D4B7B
:1053F00000221A607A4B00221A607B4B1B78012B2B
:1054000002D1764B04221A70784B1B68012B1ED1F7
:10541000774B1B680133764A1360754B1B6844F663
:105420001F62934205DD724B00221A606F4B00220F
:105430001A606F4B1B686F4A82FB03129211DB17D5
:105440009B1A14331A466C496C4808F0C9FA6C4B25
:105450001B68012B0FD16B4B1B680133694A13602A
:10546000684B1B68B3F5FA6F05D3664B00221A60D0
:10547000634B00221A60644B1B68012B0FD1634BF6
:105480001B680133614A1360604B1B68B3F5FA6F08
:1054900005D35E4B00221A605B4B00221A605C4B06
:1054A0001B68012B16D15B4B1B680133594A1360F3
:1054B000584B1B6841F2873293420BD9554B00225F
:1054C0001A60534B00221A600823534A5349544828
:1054D000FEF73CFE534B1B68012B1CD1374B0022BF
:1054E0001A60354B00221A604F4B1B6801334E4A3D
:1054F00013604D4B1B6840F6B73293420BD94A4BB1
:1055000000221A60474B00221A600823474A434989
:105510004348FEF71BFE464B1B68012B1CD1274B53
:1055200000221A60244B00221A60424B1B68013390
:10553000404A13603F4B1B6840F6B73293420BD989
:105540003C4B00221A603A4B00221A600823374A6B
:1055500032493348FEF7FAFD374B1B68012B40F008
:10556000B180364B1B680133344A1360344B1B68DF
:105570001A46324B1B689A4209D3304B1B68002BEA
:1055800005D0304B01221A602F4BFF221A602C4BA2
:105590005A682B4B1B6813441A46284B1B689A42C7
:1055A00061D3274B5B681A46244B1B689A425AD238
:1055B000244B01224AE000BF34050020B40400203F
:1055C00044050020400700208408002060020020DD
:1055D0002800002028050020B8030020C80900206A
:1055E000780700203C05002038070020C804002070
:1055F00024050020D34D621038F70008AC050020C8
:105600009804002038090020680400209008002039
:10561000A00400209C0400200C000020FCFA0210D2
:10562000140B002050040020EC0500200400002092
:10563000500A0020C0030020EC0400206402002077
:1056400090000020880800208C0000201A60214B68
:105650001B6803F00103002B38D11F4B1B68013B73
:105660001D4A136032E01D4B5A681C4B1B681344E3
:105670001A46184B1B689A4213D2184B9A68174B5C
:105680005B681A44154B1B6813441A46114B1B6880
:105690009A4206D9124B00221A600F4BFF221A6061
:1056A00014E00E4B9A680D4B5B681A440B4B1B6859
:1056B00013441A46074B1B689A4207D2054B002237
:1056C0001A6003E0034B00221A60FFE700BF0837AF
:1056D000BD4680BD640200208C00002090000020A8
:1056E0008808002080B582B000AF7860064A7B68E9
:1056F00052F823301A460549054808F071F900BFF1
:105700000837BD4680BD00BF3C000020D4F600082D
:10571000FC07002080B582B000AF78607B68013B59
:10572000054A52F823301A460449054808F058F94A
:1057300000BF0837BD4680BD58000020D4F60008E1
:10574000540A002080B500AF074B1B78012B02D014
:10575000022B03D005E005F0C1FB02E005F032FBAF
:1057600000BF00BF80BD00BF3905002080B500AF7D
:105770001D4B1B780A2B34D801A252F823F000BF2E
:10578000AD570008B3570008B9570008BF570008C5
:10579000E3570008E3570008C5570008CB57000837
:1057A000D1570008D7570008DD57000804F028FA41
:1057B00017E004F0BBFA14E004F078FB11E004F009
:1057C00035FB0EE004F0DCF90BE004F073FA08E0BE
:1057D00004F07EF905E004F03BF902E004F0E6FA9B
:1057E00000BF00BF80BD00BF3905002080B500AFFD
:1057F000224B1B78013B0B2B3ED801A252F823F021
:1058000031580008375800083D5800084358000830
:10581000495800084F580008555800085B580008C0
:1058200061580008675800086D5800087358000850
:1058300004F068FB20E004F0C3FE1DE004F0BAFBB6
:105840001AE004F035FE17E004F0F4FB14E004F075
:1058500073FE11E004F02EFC0EE004F0FBFE0BE002
:1058600004F068FC08E004F02BFD05E004F074FD92
:1058700002E004F0C7FD00BF00BF80BD3905002075
:1058800080B500AF104B1B78032B10D0032B18DC16
:10589000012B02D0022B03D013E004F00DF810E02E
:1058A0000A4B1B68012B09D104F05AF806E0084B9B
:1058B0001B78012B04D104F08FF801E000BF00E059
:1058C00000BF00BF80BD00BF3905002028050020B3
:1058D0003807002080B500AF09F08EFC284B1B78FC
:1058E000013B0B2B43D801A252F823F01D590008AD
:1058F0002B590008315900083F5900084559000844
:105900004B59000851590008575900086F590008B1
:105910005D5900086359000869590008194B1B6854
:10592000012B27D104F0DCFE24E0FFF70BFF24E07D
:10593000154B1B68012B1FD104F0D2FF1CE005F0B2
:10594000EDF81AE005F0A6F817E004F0AFFA14E05D
:10595000FFF70CFF11E0FFF749FF0EE0FFF790FFA4
:105960000BE009F077FC08E001F069FE05E009F0C2
:1059700071FC02E000BF00E000BF00BF80BD00BFBF
:10598000C8090020400700203405002080B500AF82
:1059900009F060FC0A2000F065FE09F071FC00BF10
:1059A00080BD000080B582B000AF00F0F9FD00F0CE
:1059B000A3F800F04BFA00F04BF900F0E5F800F026
:1059C000CDF900F02BF900F015F900F015FA00F010
:1059D00075F9394B394A1A60394B00221A60394B34
:1059E00000221A60384B01221A70384BFF221A60CD
:1059F000FEF7E2FE364803F0D9FA0823354A364965
:105A00003648FEF7A3FBFFF7C1FF354B00221A60B3
:105A1000344BFA221A60344BC8221A600023FB71FF
:105A2000324B80221A60324803F0C0FAFB79002B17
:105A30001CD12B4B1B680533294A1360294B1B686B
:105A4000053B284A1360284B1B680133264A136024
:105A5000234B1B68F92B03DC224B1B68002B05DC56
:105A6000214B1B68F92B01DD0123FB71FB79012B15
:105A70001CD11B4B1B68053B194A1360194B1B6853
:105A80000533184A1360184B1B68013B164A136014
:105A9000134B1B68002B03DD124B1B68F92B05DD34
:105AA000114B1B68C82B01DC0023FB71FFF712FFB1
:105AB000104802F0F9F9B9E7C80B0020E00A00200D
:105AC000B4030020A0090020AA050020140800202B
:105AD000980A0020B8000020FCFA0110140B0020E6
:105AE00094040020F40700201C080020000000207F
:105AF000800B0020000B002080B590B000AF07F1B4
:105B0000180328220021184609F0B2FD3B1D00228F
:105B10001A605A609A60DA601A610923BB614FF417
:105B20008033FB6100233B620123BB6201233B63A3
:105B300002237B634FF48033BB634FF4C013FB63DA
:105B400007F11803184602F0BFF90346002B01D0F5
:105B500000F0E8F90F237B600223BB600023FB60A9
:105B60004FF480633B6100237B613B1D022118469B
:105B700002F02AFC0346002B01D000F0D3F900BF4D
:105B80004037BD4680BD000080B500AF174B184AB6
:105B90001A60164B08225A60144B00229A60134B6D
:105BA0000022DA60114B4FF440221A610F4B4FF480
:105BB00080125A610D4B00221A760C4B01225A7644
:105BC0000A4B00229A76094B0122DA76074B002213
:105BD0001A77064B00225A77044800F067FD034607
:105BE000002B01D000F09EF900BF80BD140B0020F7
:105BF0000064004080B500AF064B074A1A600548B4
:105C000001F02DFD0346002B01D000F08BF900BF01
:105C100080BD00BF0C0B00200030024080B500AFFB
:105C2000094B0A4A1A60084B05225A60064B40F697
:105C3000C4129A60044802F0F5F80346002B01D024
:105C400000F070F900BF80BD000B00200030004064
:105C500080B500AF174B184A1A60164B4FF482728A
:105C60005A60144B00229A60124B0022DA60114BEA
:105C700000221A610F4B00225A610E4B4FF4007242
:105C80009A610C4B1022DA610A4B00221A62094B0E
:105C900000225A62074B00229A62064B0A22DA62FD
:105CA000044802F02BFD0346002B01D000F03AF926
:105CB00000BF80BDCC0B00200030014080B586B015
:105CC00000AF07F1080300221A605A609A60DA6098
:105CD0003B4600221A605A601E4B1F4A1A601D4B39
:105CE0003F225A601B4B00229A601A4B4FF47A7283
:105CF000DA60184B00221A61164B00225A61154BCC
:105D000000229A61134803F001F90346002B01D0E9
:105D100000F008F94FF48053BB6007F108031946FF
:105D20000C4803F09DFA0346002B01D000F0FAF86E
:105D300000233B6000237B603B461946054803F087
:105D40006FFC0346002B01D000F0ECF800BF1837C1
:105D5000BD4680BD800B0020002C014080B586B080
:105D600000AF07F1080300221A605A609A60DA60F7
:105D70003B4600221A605A601D4B1E4A1A601C4B9B
:105D80003F225A601A4B00229A60194B4FF47A72E4
:105D9000DA60174B00221A61154B00229A611448F1
:105DA00003F0B4F80346002B01D000F0BBF84FF429
:105DB0008053BB6007F1080319460D4803F050FA01
:105DC0000346002B01D000F0ADF800233B60002318
:105DD0007B603B461946064803F022FC0346002B35
:105DE00001D000F09FF800BF1837BD4680BD00BF4E
:105DF000980A00200008004080B500AF114B124AFD
:105E00001A60104B4FF4E1325A600E4B00229A6038
:105E10000C4B0022DA600B4B00221A61094B0C225A
:105E20005A61084B00229A61064B0022DA6105484C
:105E300003F066FC0346002B01D000F073F800BFAE
:105E400080BD00BF3C0B00200038014080B588B009
:105E500000AF07F1100300221A605A609A60DA60FE
:105E60002D4B9B692C4A43F0100393612A4B9B698D
:105E700003F01003FB60FB68274B9B69264A43F045
:105E800020039361244B9B6903F02003BB60BB6834
:105E9000214B9B69204A43F0040393611E4B9B698D
:105EA00003F004037B607B681B4B9B691A4A43F039
:105EB00008039361184B9B6903F008033B603B6840
:105EC00000224FF40051154801F094FF00221421E4
:105ED000134801F08FFF4FF400533B6101237B61B6
:105EE0000023BB610223FB6107F1100319460B4835
:105EF00001F0FCFD14233B6101237B610023BB61A6
:105F00000223FB6107F110031946054801F0EEFD7D
:105F100000BF2037BD4680BD001002400010014088
:105F20000008014080B400AF72B600BFFEE7000079
:105F300080B483B000AF0346FB7197F90730002BA4
:105F40000BDBFB7903F01F02064997F907305B0969
:105F5000012000FA02F241F8232000BF0C37BD46B1
:105F600080BC704700E100E080B483B000AF03461E
:105F7000FB7197F90730002B12DBFB7903F01F024E
:105F80000A4997F907305B09012000FA02F2203331
:105F900041F82320BFF34F8F00BFBFF36F8F00BFC7
:105FA00000BF0C37BD4680BC704700BF00E100E079
:105FB00080B584B000AFF860B96011461A460B4650
:105FC000FB8013467B717B79002B03D0F868FEF7CA
:105FD00019FC00E000BF1037BD4680BD90B583B00E
:105FE00000AF1420FFF7C0FF00237B6072E07A68E7
:105FF00013465B0013441B013B4A134419463B48BC
:1060000007F0DEF938497A6813465B0013441B0138
:106010000B4424331B78082B27D133497A68134665
:106020005B0013441B010B4418682F497A68134620
:106030005B0013441B010B44043319682A4C7A6833
:1060400013465B0013441B01234408331A880123C1
:10605000FFF7AEFF24497A6813465B0013441B0127
:106060000B44243300221A7031E01F497A6813462A
:106070005B0013441B010B4424331B78092B26D1EE
:1060800019497A6813465B0013441B010B441868D6
:1060900015497A6813465B0013441B010B44043313
:1060A0001968114C7A6813465B0013441B012344A2
:1060B00008331A880023FFF77BFF0B497A681346E1
:1060C0005B0013441B010B44243300221A707B68CD
:1060D00001337B607B68042B89DD1420FFF728FFE8
:1060E00000BF0C37BD4690BDD4000020C00000208A
:1060F00080B588B002AFF860B9601346FB71BB6829
:106100001B683B6100237B6127E018497A691346CD
:106110005B0013441B010B441B683A699A420AD086
:1061200012497A6913465B0013441B010B441B6838
:10613000FA689A420ED17A6913465B0013441B0138
:106140000A4A9918FB799BB20093BB68FA68084821
:1061500007F070FA7B6901337B617B69042BD4DD26
:1061600000BF00BF1837BD4680BD00BFD40000206F
:10617000C000002080B485B000AF154B9B69144A65
:1061800043F001039361124B9B6903F00103BB6071
:10619000BB680F4BDB690E4A43F08053D3610C4B55
:1061A000DB6903F080537B607B680A4B5B68FB60B4
:1061B000FB6823F0E063FB60FB6843F00073FB6067
:1061C000044AFB68536000BF1437BD4680BC70476B
:1061D000001002400000014080B58AB000AF786036
:1061E00007F1140300221A605A609A60DA607B6833
:1061F0001B68294A93424BD1284BDB69274A43F05D
:106200000073D361254BDB6903F000733B613B698D
:10621000224B9B69214A43F0080393611F4B9B6902
:1062200003F00803FB60FB684FF480737B6100237D
:10623000BB610023FB6107F114031946184801F004
:1062400055FC4FF400737B610223BB6103233B6267
:1062500007F114031946124801F048FC114B5B6822
:106260007B627B6A23F4C0437B627B6A43F0E0631A
:106270007B627B6A43F480437B620A4A7B6A536099
:1062800000220121142001F0B0F9142001F0C9F915
:1062900000BF2837BD4680BD0064004000100240AA
:1062A000000C01400000014080B485B000AF786070
:1062B0007B681B68094A93420BD1094B5B69084A0A
:1062C00043F040035361064B5B6903F04003FB60FE
:1062D000FB6800BF1437BD4680BC704700300240E9
:1062E0000010024080B588B000AF786007F110035D
:1062F00000221A605A609A60DA607B681B681B4A49
:1063000093422FD11A4B9B69194A43F480539361EE
:10631000174B9B6903F48053FB60FB68144B9B692C
:10632000134A43F004039361114B9B6903F0040388
:10633000BB60BB68A0233B6102237B610323FB613D
:1063400007F1100319460B4801F0D0FB40233B61D5
:1063500000237B610023BB6107F110031946054848
:1063600001F0C4FB00BF2037BD4680BD00300140B6
:10637000001002400008014080B584B000AF786092
:106380007B681B681A4A934214D11A4B9B69194ABD
:1063900043F400639361174B9B6903F40063FB6054
:1063A000FB6800220121192001F01FF9192001F0DA
:1063B00038F918E07B681B680F4A934213D10D4BE4
:1063C000DB690C4A43F00403D3610A4BDB6903F039
:1063D0000403BB60BB68002202211E2001F005F906
:1063E0001E2001F01EF900BF1037BD4680BD00BF62
:1063F000002C0140001002400008004080B588B029
:1064000000AF786007F1100300221A605A609A60AA
:10641000DA607B681B681C4A934231D11B4B9B6935
:106420001A4A43F480439361184B9B6903F48043F9
:10643000FB60FB68154B9B69144A43F004039361AE
:10644000124B9B6903F00403BB60BB684FF40073FD
:106450003B6102237B610323FB6107F110031946B3
:106460000B4801F043FB4FF480633B6100237B61E9
:106470000023BB6107F110031946054801F036FB04
:1064800000BF2037BD4680BD0038014000100240EB
:106490000008014080B500AF01F0D1F8FEE780B5FB
:1064A00000AF01F0CCF8FEE780B500AF01F0C7F80F
:1064B000FEE780B500AF01F0C2F8FEE780B500AF9F
:1064C00001F0BDF8FEE780B400AF00BFBD4680BC60
:1064D000704780B400AF00BFBD4680BC704780B439
:1064E00000AF00BFBD4680BC704780B500AF00F074
:1064F0009DF800BF80BD000080B500AF024800F0ED
:1065000063FD00BF80BD00BF140B002080B500AF4D
:10651000FFF764FD024802F09BFD00BF80BD00BF95
:10652000800B002080B500AF024802F091FD00BF53
:1065300080BD00BF980A002080B400AF034B044A1E
:106540009A6000BFBD4680BC704700BF00ED00E010
:10655000003400080C480D490D4A002302E0D458CD
:10656000C4500433C4188C42F9D30A4A0A4C00239D
:1065700001E013600432A242FBD3FFF7DDFF09F014
:1065800053F8FFF70FFA704700000020D0010020F9
:1065900098FC0008D0010020840C0020FEE70000D9
:1065A00080B500AF084B1B68074A43F01003136027
:1065B000032001F00FF8002000F008F8FFF7DAFDE3
:1065C0000023184680BD00BF0020024080B582B085
:1065D00000AF7860124B1A68124B1B7819464FF4C3
:1065E0007A73B3FBF1F3B2FBF3F3184601F02BF827
:1065F0000346002B01D001230EE07B680F2B0AD845
:10660000002279684FF0FF3000F0EFFF064A7B6808
:106610001360002300E0012318460837BD4680BD03
:10662000C4010020CC010020C801002080B400AFCC
:10663000054B1B781A46054B1B681344034A13602D
:1066400000BFBD4680BC7047CC010020280C002054
:1066500080B400AF024B1B681846BD4680BC704733
:10666000280C002080B584B000AF7860FFF7F0FF01
:10667000B8607B68FB60FB68B3F1FF3F05D00A4B55
:106680001B781A46FB681344FB6000BFFFF7E0FF6E
:106690000246BB68D31AFA689A42F7D800BF00BF17
:1066A0001037BD4680BD00BFCC01002080B584B04E
:1066B00000AF78607B68002B01D10123EDE07B689F
:1066C00093F82030DBB2002B02D17868FFF784FD0D
:1066D0007B681B681A687B681B6842F001021A60BD
:1066E000FFF7B6FFF86012E0FFF7B2FF0246FB6863
:1066F000D31A0A2B0BD97B685B6A43F400327B68A0
:106700005A627B68052283F820200123C5E07B685C
:106710001B685B6803F00103002BE5D07B681B68F6
:106720001A687B681B6822F002021A60FFF790FF6C
:10673000F86012E0FFF78CFF0246FB68D31A0A2BC1
:106740000BD97B685B6A43F400327B685A627B68D2
:10675000052283F8202001239FE07B681B685B688B
:1067600003F00203002BE5D17B681B7E012B08D1CF
:106770007B681B681A687B681B6842F080021A609D
:1067800007E07B681B681A687B681B6822F0800240
:106790001A607B685B7E012B08D17B681B681A68D6
:1067A0007B681B6842F040021A6007E07B681B6848
:1067B0001A687B681B6822F040021A607B689B7E27
:1067C000012B08D17B681B681A687B681B6842F044
:1067D00020021A6007E07B681B681A687B681B68E8
:1067E00022F020021A607B68DB7E012B08D17B68D7
:1067F0001B681A687B681B6822F010021A6007E0A9
:106800007B681B681A687B681B6842F010021A607C
:106810007B681B7F012B08D17B681B681A687B682B
:106820001B6842F008021A6007E07B681B681A6860
:106830007B681B6822F008021A607B685B7F012B73
:1068400008D17B681B681A687B681B6842F00402E9
:106850001A6007E07B681B681A687B681B6822F077
:1068600004021A607B689A687B68DB681A437B685D
:106870001B691A437B685B6942EA03017B685B68BA
:106880005A1E7B681B680A43DA617B6800225A62E1
:106890007B68012283F82020002318461037BD466C
:1068A00080BD80B487B000AF786039607B681B68BA
:1068B0007B617B6893F82030FB74FB7C012B03D059
:1068C000FB7C022B40F0AA807B69D3F8003243F0B6
:1068D00001027B69C3F800223B685B6903F01F0378
:1068E000012202FA03F3FB607B69D3F81C22FB68E8
:1068F000DB431A407B69C3F81C223B68DB69002B31
:1069000023D17B69D3F80C22FB68DB431A407B69F7
:10691000C3F80C223B68DB6819043B685B689BB2D8
:106920003A68526919437B69483243F832103B6830
:106930009B6819043B681B689AB23B685B690A4311
:1069400079694833DB000B445A603B68DB69012BF3
:1069500022D17B69D3F80C22FB681A437B69C3F808
:106960000C223B681B6819043B685B689BB23A6861
:10697000526919437B69483243F832103B689B687F
:1069800019043B68DB689AB23B685B690A43796922
:106990004833DB000B445A603B689B69002B09D1EC
:1069A0007B69D3F80422FB68DB431A407B69C3F898
:1069B000042207E07B69D3F80422FB681A437B6951
:1069C000C3F804223B681B69002B09D17B69D3F80B
:1069D0001422FB68DB431A407B69C3F8142207E0EA
:1069E0007B69D3F81422FB681A437B69C3F814222D
:1069F0003B681B6A012B07D17B69D3F81C22FB681B
:106A00001A437B69C3F81C227B69D3F8003223F058
:106A100001027B69C3F80022002306E07B685B6A01
:106A200043F480227B685A62012318461C37BD4616
:106A300080BC704780B584B000AF78607B6893F805
:106A40002030DBB2012B2ED17B68022283F820207C
:106A50007B681B681A687B681B6822F001021A6059
:106A6000FFF7F6FDF86012E0FFF7F2FD0246FB6863
:106A7000D31A0A2B0BD97B685B6A43F400327B681C
:106A80005A627B68052283F82020012312E07B688C
:106A90001B685B6803F00103002BE5D17B680022D3
:106AA0005A62002306E07B685B6A43F400227B683D
:106AB0005A62012318461037BD4680BD80B489B0A4
:106AC00000AFF860B9607A603B60FB6893F82030F3
:106AD000FB77FB681B689B68BB61FB7F012B03D0C6
:106AE000FB7F022B40F0B880BB6903F08063002B72
:106AF0000AD1BB6903F00063002B05D1BB6903F029
:106B00008053002B00F0A080BB691B0E03F0030331
:106B10007B617B69022B07D9FB685B6A43F4000247
:106B2000FB685A6201239EE001227B699A403B6820
:106B30001A60BB689B68002B0DD1BB681B685A05A7
:106B4000BB68DB68F96809681A437B6918331B0165
:106B50000B441A600FE0BB685B68DA00BB689B6897
:106B60001A43BB68DB68F96809681A437B69183304
:106B70001B010B441A60FB681968BB681A697B69C2
:106B800018331B010B4404331A60BB681B7D012BB7
:106B900011D1FB681A687B6918331B011344043355
:106BA0001B68FA68116843F480727B6918331B0113
:106BB0000B4404331A607B6807331B781A067B6822
:106BC00006331B781B041A437B6805331B781B02B2
:106BD00013437A68043212781046FA68116843EA5F
:106BE00000027B691B010B4403F5C6731A607B68C6
:106BF00003331B781A067B6802331B781B041A4385
:106C00007B6801331B781B0213437A6812781046A5
:106C1000FA68116843EA00027B691B010B4403F523
:106C2000C4731A60FB681A687B6918331B0113442C
:106C30001B68FA68116843F001027B6918331B0175
:106C40000B441A6000230EE0FB685B6A43F40012F9
:106C5000FB685A62012306E0FB685B6A43F480220A
:106C6000FB685A62012318462437BD4680BC704732
:106C700080B485B000AF786039607B6893F82030CD
:106C8000FB73FB7B012B02D0FB7B022B28D13B68E3
:106C900003F00103002B07D07B681B689A687B68B0
:106CA0001B6842F080029A603B6803F00203002BED
:106CB00007D07B681B689A687B681B6842F40042B7
:106CC0009A603B6803F00403002B07D07B681B68C5
:106CD0009A687B681B6842F400029A60002306E011
:106CE0007B685B6A43F480227B685A620123184602
:106CF0001437BD4680BC704780B485B000AF786063
:106D00000023FB607B6893F82030FB72FB7A012B39
:106D100002D0FB7A022B1DD17B681B689B6803F0B5
:106D20008063002B02D0FB680133FB607B681B682B
:106D30009B6803F00063002B02D0FB680133FB600B
:106D40007B681B689B6803F08053002B02D0FB68B4
:106D50000133FB60FB6818461437BD4680BC7047A2
:106D600080B485B000AF786039600023FB607B6839
:106D700093F82030FB72FB7A012B02D0FB7A022BB6
:106D80000BD17B681B689A683B689B061A403B687E
:106D90009B069A4201D00123FB60FB68184614371A
:106DA000BD4680BC704780B487B000AFF860B96062
:106DB0007A603B60FB6893F82030FB75FB7D012B0C
:106DC00003D0FB7D022B40F0F380BB68002B0ED17B
:106DD000FB681B68DB6803F00303002B16D1FB681C
:106DE0005B6A43F40012FB685A620123E7E0FB6828
:106DF0001B681B6903F00303002B07D1FB685B6A68
:106E000043F40012FB685A620123D8E0FB681A6859
:106E1000BB681B331B0113441B6803F004027B682F
:106E20009A607B689B68002B0CD1FB681A68BB6872
:106E30001B331B0113441B685B0DC3F30A027B6801
:106E40001A600BE0FB681A68BB681B331B01134414
:106E50001B68DB0823F060427B685A60FB681A6895
:106E6000BB681B331B0113441B6803F002027B68E1
:106E7000DA60FB681A68BB681B331B0113440433D8
:106E80001B6803F00F027B681A61FB681A68BB6815
:106E90001B331B01134404331B681B0ADAB27B68E3
:106EA0009A61FB681A68BB681B331B0113440433E7
:106EB0001B681B0C9AB27B685A61FB681A68BB6836
:106EC0001B01134403F5DC731B68DAB23B681A70CC
:106ED000FB681A68BB681B01134403F5DC731B686D
:106EE0001A0A3B680133D2B21A70FB681A68BB6891
:106EF0001B01134403F5DC731B681A0C3B68023357
:106F0000D2B21A70FB681A68BB681B01134403F500
:106F1000DC731B681A0E3B680333D2B21A70FB682D
:106F20001A68BB681B01134403F5DE731A683B68DB
:106F30000433D2B21A70FB681A68BB681B01134491
:106F400003F5DE731B681A0A3B680533D2B21A7068
:106F5000FB681A68BB681B01134403F5DE731B68EA
:106F60001A0C3B680633D2B21A70FB681A68BB6809
:106F70001B01134403F5DE731B681A0E3B680733CD
:106F8000D2B21A70BB68002B08D1FB681B68DA68A4
:106F9000FB681B6842F02002DA6007E0FB681B68B0
:106FA0001A69FB681B6842F020021A61002306E0A0
:106FB000FB685B6A43F48022FB685A62012318462F
:106FC0001C37BD4680BC704780B58AB000AF786082
:106FD00000237B627B681B685B693B627B681B6884
:106FE0005B68FB617B681B689B68BB617B681B6897
:106FF000DB687B617B681B681B693B617B681B6886
:107000009B69FB603B6A03F00103002B7CD0BB69EA
:1070100003F00103002B23D07B681B6801229A60D8
:10702000BB6903F00203002B03D0786800F083F9FA
:1070300016E0BB6903F00403002B04D07B6A43F421
:1070400000637B620CE0BB6903F00803002B04D0F3
:107050007B6A43F480537B6202E0786800F086F933
:10706000BB6903F48073002B24D07B681B684FF44A
:1070700080729A60BB6903F40073002B03D07868B8
:1070800000F062F916E0BB6903F48063002B04D0C2
:107090007B6A43F400537B620CE0BB6903F400633A
:1070A000002B04D07B6A43F480437B6202E0786863
:1070B00000F065F9BB6903F48033002B24D07B68B2
:1070C0001B684FF480329A60BB6903F40033002BD5
:1070D00003D0786800F041F916E0BB6903F480231F
:1070E000002B04D07B6A43F400437B620CE0BB6955
:1070F00003F40023002B04D07B6A43F480337B62CB
:1071000002E0786800F044F93B6A03F00803002BC2
:107110000CD07B6903F01003002B07D07B6A43F48B
:1071200000737B627B681B681022DA603B6A03F0A5
:107130000403002B0BD07B6903F00803002B06D05F
:107140007B681B680822DA60786800F02AF93B6ADD
:1071500003F00203002B09D07B681B68DB6803F097
:107160000303002B02D07868FDF73AF83B6A03F07E
:107170004003002B0CD03B6903F01003002B07D019
:107180007B6A43F480637B627B681B6810221A6110
:107190003B6A03F02003002B0BD03B6903F008038C
:1071A000002B06D07B681B6808221A61786800F003
:1071B0000AF93B6A03F01003002B09D07B681B68B7
:1071C0001B6903F00303002B02D0786800F0F2F88B
:1071D0003B6A03F40033002B0BD0FB6903F0100370
:1071E000002B06D07B681B6810225A60786800F07C
:1071F000F3F83B6A03F48033002B0BD0FB6903F0F8
:107200000803002B06D07B681B6808225A60786848
:1072100000F0EBF83B6A03F40043002B7BD0FB69E2
:1072200003F00403002B72D03B6A03F48073002B3D
:1072300008D0FB6803F00103002B03D07B6A43F006
:1072400001037B623B6A03F40073002B08D0FB68E8
:1072500003F00203002B03D07B6A43F002037B623E
:107260003B6A03F48063002B08D0FB6803F004033F
:10727000002B03D07B6A43F004037B623B6A03F478
:107280000063002B43D0FB6803F07003002B3ED05B
:10729000FB6803F07003602B2BD0602B2ED8502B93
:1072A00022D0502B2AD8402B19D0402B26D8302B57
:1072B00010D0302B22D8102B02D0202B05D01DE06F
:1072C0007B6A43F008037B6219E07B6A43F010039A
:1072D0007B6214E07B6A43F020037B620FE07B6AF1
:1072E00043F040037B620AE07B6A43F080037B62E9
:1072F00005E07B6A43F480737B6200E000BF7B683B
:107300001B689A697B681B6822F070029A617B682F
:107310001B6804225A607B6A002B08D07B685A6A7B
:107320007B6A1A437B685A62786800F067F800BF8E
:107330002837BD4680BD80B483B000AF786000BF01
:107340000C37BD4680BC704780B483B000AF786016
:1073500000BF0C37BD4680BC704780B483B000AF1F
:10736000786000BF0C37BD4680BC704780B483B0E6
:1073700000AF786000BF0C37BD4680BC704780B45A
:1073800083B000AF786000BF0C37BD4680BC70474B
:1073900080B483B000AF786000BF0C37BD4680BCBE
:1073A000704780B483B000AF786000BF0C37BD4633
:1073B00080BC704780B483B000AF786000BF0C37EA
:1073C000BD4680BC704780B483B000AF786000BF1A
:1073D0000C37BD4680BC704780B483B000AF786086
:1073E00000BF0C37BD4680BC704780B483B000AF8F
:1073F000786000BF0C37BD4680BC704780B483B056
:1074000000AF786000BF0C37BD4680BC70470000FD
:1074100080B485B000AF78607B6803F00703FB6041
:107420000C4BDB68BB60BA684FF6FF031340BB60D0
:10743000FB681A02BB68134343F0BF6343F4003395
:10744000BB60044ABB68D36000BF1437BD4680BC34
:10745000704700BF00ED00E080B400AF044BDB6874
:107460001B0A03F007031846BD4680BC704700BFE7
:1074700000ED00E080B483B000AF0346FB7197F9E4
:107480000730002B0BDBFB7903F01F02064997F94D
:1074900007305B09012000FA02F241F8232000BF07
:1074A0000C37BD4680BC704700E100E080B483B07B
:1074B00000AF03463960FB7197F90730002B0ADBF8
:1074C0003B68DAB20C4997F907301201D2B20B448B
:1074D00083F800230AE03B68DAB20849FB7903F03D
:1074E0000F03043B1201D2B20B441A7600BF0C37D3
:1074F000BD4680BC704700BF00E100E000ED00E049
:1075000080B489B000AFF860B9607A60FB6803F0BE
:107510000703FB61FB69C3F10703042B28BF0423A6
:10752000BB61FB690433062B02D9FB69033B00E016
:1075300000237B614FF0FF32BB6902FA03F3DA43A9
:10754000BB681A407B699A404FF0FF317B6901FAB2
:1075500003F3D9437B680B40134318462437BD46D9
:1075600080BC704780B400AFBFF34F8F00BF064BA5
:10757000DB6803F4E0620449044B1343CB60BFF3C0
:107580004F8F00BF00BFFDE700ED00E00400FA05EB
:1075900080B582B000AF78607B68013BB3F1807F3B
:1075A00001D301230FE00A4A7B68013B53600F219E
:1075B0004FF0FF30FFF77AFF054B00229A60044B33
:1075C00007221A60002318460837BD4680BD00BF59
:1075D00010E000E080B582B000AF78607868FFF717
:1075E00017FF00BF0837BD4680BD80B586B000AF2D
:1075F0000346B9607A60FB7300237B61FFF72CFFC1
:1076000078617A68B9687869FFF77AFF024697F976
:107610000F3011461846FFF749FF00BF1837BD4627
:1076200080BD80B582B000AF0346FB7197F907308B
:107630001846FFF71FFF00BF0837BD4680BD80B565
:1076400000AFFFF78FFF80B582B000AF7860786839
:10765000FFF79EFF034618460837BD4680BD80B53C
:1076600082B000AF78607B68002B01D101230EE06F
:107670007B685B79DBB2002B05D17B6800221A7135
:107680007868FEF711FE7B6801225A7100231846C4
:107690000837BD4680BD80B487B000AFF860B960E0
:1076A0007A6000233B61FB6802225A7100237B61F0
:1076B0000AE07B699B00BA681A44FB681B68126881
:1076C0001A607B6901337B617A697B689A42F0D3E7
:1076D000FB681B681B683B61FB6801225A713B69B0
:1076E00018461C37BD4680BC70470000F0B587B017
:1076F00000AFF860B960C7E900230123FB750023E0
:10770000BB7500237B752F4B1B7E012B01D1022300
:1077100054E02C4B01221A764CF2503000F0A8F8BD
:107720000346FB75FB7D002B44D1FB68012B02D186
:1077300001237B7507E0FB68022B02D102237B75D6
:1077400001E004237B750023BB752DE0BB7D5A004F
:10775000BB6802EB030CBB7D1901D7E90023C1F123
:107760002006A1F1200022FA01F403FA06F63443C0
:1077700023FA00F0044323FA01F5A3B21946604648
:1077800000F05AF84CF2503000F072F80346FB75E6
:107790000D4B1B690C4A23F001031361FB7D002B89
:1077A00007D1BB7D0133BB75BA7D7B7D9A42CDD3BA
:1077B00000E000BF034B00221A76FB7D18461C3701
:1077C000BD46F0BD300C00200020024080B483B0E4
:1077D00000AF0023FB710D4B1B6903F08003002BEE
:1077E0000DD00A4B0A4A5A60084B0A4A5A60074BA6
:1077F0001B6903F08003002B01D00123FB71FB798F
:1078000018460C37BD4680BC704700BF00200240C0
:1078100023016745AB89EFCD80B400AF054B1B69F1
:10782000044A43F08003136100231846BD4680BC20
:10783000704700BF0020024080B483B000AF786082
:107840000B467B80084B0022DA61084B1B69074A14
:1078500043F0010313617B687A881A8000BF0C37FC
:10786000BD4680BC704700BF300C002000200240A5
:1078700080B584B000AF7860FEF7EAFEF86010E0F3
:107880007B68B3F1FF3F0CD07B68002B07D0FEF77D
:10789000DFFE0246FB68D31A7A689A4201D20323BC
:1078A00025E0154BDB6803F00103002BE8D1124BF8
:1078B000DB6803F02003002B02D00F4B2022DA609C
:1078C0000D4BDB6803F01003002B0BD10A4BDB6977
:1078D00003F00103002B05D1074BDB6803F0040321
:1078E000002B03D000F00AF8012300E00023184623
:1078F0001037BD4680BD00BF0020024080B483B079
:1079000000AF00237B60234BDB6803F01003002BE8
:1079100009D0214BDB6943F002031F4AD3617B6826
:1079200043F010037B601B4BDB6803F00403002B68
:1079300009D0194BDB6943F00103174AD3617B6817
:1079400043F004037B60134BDB6903F00103002B5E
:107950000BD0114BDB6943F004030F4AD3610D4B8D
:10796000DB690C4A23F00103D3617B6840F201120A
:10797000934206D1074BDB69064A23F00103D3612A
:1079800002E0044A7B68D36000BF0C37BD4680BC70
:10799000704700BF00200240300C002080B584B04A
:1079A00000AF786039600123FB730023BB602F4B6D
:1079B0001B7E012B01D1022353E02C4B01221A76AE
:1079C0007B681B68022B16D14CF25030FFF750FF3A
:1079D0000346002B41D1012000F04CF84CF250300E
:1079E000FFF746FF0346FB73214B1B69204A23F038
:1079F0000403136131E04CF25030FFF739FF0346C6
:107A0000002B2AD13B684FF0FF321A607B689B68DD
:107A1000BB6019E0B86800F049F84CF25030FFF74D
:107A200027FF0346FB73124B1B69114A23F0020325
:107A30001361FB7B002B03D03B68BA681A600CE033
:107A4000BB6803F58063BB607B68DB689A027B6878
:107A50009B681344BA689A42DCD3044B00221A761E
:107A6000FB7B18461037BD4680BD00BF300C0020A0
:107A70000020024080B483B000AF7860094B002240
:107A8000DA61094B1B69084A43F004031361064B92
:107A90001B69054A43F04003136100BF0C37BD4624
:107AA00080BC7047300C00200020024080B483B0BE
:107AB00000AF78600B4B0022DA610B4B1B690A4A5E
:107AC00043F002031361084A7B685361064B1B694C
:107AD000054A43F04003136100BF0C37BD4680BC2C
:107AE000704700BF300C00200020024080B48BB0F3
:107AF00000AF7860396000237B6200233B6269E15C
:107B000001227B6A02FA03F3FB613B681B68FA6996
:107B10001340BB61BA69FB699A4240F058813B68E7
:107B20005B689A4A93425ED0984A934275D8984AC5
:107B3000934258D0964A93426FD8964A934252D075
:107B4000944A934269D8944A93424CD0924A9342C1
:107B500063D8924A934246D0904A93425DD8122B02
:107B60002AD8122B59D801A252F823F0E77B00083B
:107B7000C17B0008D37B0008157C00081B7C000833
:107B80001B7C00081B7C00081B7C00081B7C000879
:107B90001B7C00081B7C00081B7C00081B7C000869
:107BA0001B7C00081B7C00081B7C00081B7C000859
:107BB000C97B0008DD7B0008794A934213D02CE092
:107BC0003B68DB683B6229E03B68DB6804333B626F
:107BD00024E03B68DB6808333B621FE03B68DB68FE
:107BE0000C333B621AE03B689B68002B02D10423F4
:107BF0003B6213E03B689B68012B05D108233B6285
:107C00007B68FA691A6109E008233B627B68FA69BC
:107C10005A6103E000233B6200E000BFBB69FF2B19
:107C200001D87B6801E07B6804337B61BB69FF2B73
:107C300002D87B6A9B0002E07B6A083B9B003B61A9
:107C40007B691A680F213B6901FA03F3DB431A4091
:107C5000396A3B6901FA03F31A437B691A603B688E
:107C60005B6803F08053002B00F0B1804D4B9B69A3
:107C70004C4A43F0010393614A4B9B6903F00103B3
:107C8000BB60BB68484A7B6A9B08023352F82330CA
:107C9000FB607B6A03F003039B000F2202FA03F3ED
:107CA000DB43FA681340FB607B68404A934213D081
:107CB0007B683F4A93420DD07B683E4A934207D08F
:107CC0007B683D4A934201D1032306E0042304E08C
:107CD000022302E0012300E000237A6A02F003029B
:107CE00092009340FA681343FB602F497B6A9B081C
:107CF0000233FA6841F823203B685B6803F4803361
:107D0000002B06D02D4B1A682C49BB6913430B601E
:107D100006E02A4B1A68BB69DB43284913400B6015
:107D20003B685B6803F40033002B06D0234B5A6892
:107D30002249BB6913434B6006E0204B5A68BB697C
:107D4000DB431E4913404B603B685B6803F48013C0
:107D5000002B06D0194B9A681849BB6913438B60F6
:107D600006E0164B9A68BB69DB43144913408B60ED
:107D70003B685B6803F40013002B21D00F4BDA68DB
:107D80000E49BB691343CB6021E000BF00003210F5
:107D9000000031100000221000002110000012101D
:107DA00000001110001002400000014000080140D6
:107DB000000C01400010014000140140000401408B
:107DC0000B4BDA68BB69DB4309491340CB607B6A24
:107DD00001337B623B681A687B6A22FA03F3002B4B
:107DE0007FF48EAE00BF00BF2C37BD4680BC70470D
:107DF0000004014080B483B000AF78600B467B8004
:107E000013467B707B78002B03D07A887B681A61DD
:107E100003E07B881A047B681A6100BF0C37BD46FB
:107E200080BC704780B584B000AF78607B68002B61
:107E300001D1012334E07B681B684CF6CC421A6008
:107E40007B681B6845F255521A607B681B687A682C
:107E500052685A607B681B687A6892689A60FEF77D
:107E6000F7FBF8600FE0FEF7F3FB0246FB68D31A5E
:107E7000272B08D97B681B68DB6803F00303002B02
:107E800001D003230CE07B681B68DB6803F003036D
:107E9000002BE8D17B681B684AF6AA221A600023EF
:107EA00018461037BD4680BD80B483B000AF7860FF
:107EB0007B681B684AF6AA221A60002318460C3712
:107EC000BD4680BC7047000080B586B000AF7860CA
:107ED0007B68002B01D101236CE27B681B6803F0F7
:107EE0000103002B00F08780924B5B6803F00C03CA
:107EF000042B0CD08F4B5B6803F00C03082B12D1C2
:107F00008C4B5B6803F48033B3F5803F0BD1894B16
:107F10001B6803F40033002B6CD07B685B68002B7C
:107F200068D1012346E27B685B68B3F5803F06D1E8
:107F3000804B1B687F4A43F4803313602EE07B68DC
:107F40005B68002B0CD17B4B1B687A4A23F480338F
:107F50001360784B1B68774A23F4802313601DE07D
:107F60007B685B68B3F5A02F0CD1724B1B68714A1C
:107F700043F4802313606F4B1B686E4A43F48033D5
:107F800013600BE06B4B1B686A4A23F48033136069
:107F9000684B1B68674A23F4802313607B685B6827
:107FA000002B13D0FEF754FB386108E0FEF750FBBE
:107FB00002463B69D31A642B01D90323FAE15D4BD6
:107FC0001B6803F40033002BF0D014E0FEF740FBF5
:107FD000386108E0FEF73CFB02463B69D31A642B8C
:107FE00001D90323E6E1534B1B6803F40033002B54
:107FF000F0D100E000BF7B681B6803F00203002B98
:1080000063D04C4B5B6803F00C03002B0BD0494B47
:108010005B6803F00C03082B1CD1464B5B6803F430
:108020008033002B16D1434B1B6803F00203002B57
:1080300005D07B681B69012B01D00123BAE13D4BC0
:108040001B6823F0F8027B685B69DB003949134346
:108050000B603AE07B681B69002B20D0364B012275
:108060001A60FEF7F5FA386108E0FEF7F1FA024609
:108070003B69D31A022B01D903239BE12D4B1B68CB
:1080800003F00203002BF0D02A4B1B6823F0F80208
:108090007B685B69DB00274913430B6015E0264BC7
:1080A00000221A60FEF7D4FA386108E0FEF7D0FA31
:1080B00002463B69D31A022B01D903237AE11D4BF7
:1080C0001B6803F00203002BF0D17B681B6803F0F0
:1080D0000803002B3AD07B689B69002B19D0174B03
:1080E00001221A60FEF7B4FA386108E0FEF7B0FA30
:1080F00002463B69D31A022B01D903235AE10D4BE7
:108100005B6A03F00203002BF0D0012000F0D8FAE4
:108110001CE00A4B00221A60FEF79AFA38610FE061
:10812000FEF796FA02463B69D31A022B08D90323BD
:1081300040E100BF00100240000042428004424281
:108140009E4B5B6A03F00203002BE9D17B681B683E
:1081500003F00403002B00F0A6800023FB75974B6F
:10816000DB6903F08053002B0DD1944BDB69934AFC
:1081700043F08053D361914BDB6903F08053BB60C4
:10818000BB680123FB758E4B1B6803F48073002BC7
:1081900018D18B4B1B688A4A43F480731360FEF737
:1081A00057FA386108E0FEF753FA02463B69D31AE2
:1081B000642B01D90323FDE0814B1B6803F480731A
:1081C000002BF0D07B68DB68012B06D17B4B1B6A50
:1081D0007A4A43F0010313622DE07B68DB68002BD1
:1081E0000CD1764B1B6A754A23F001031362734B63
:1081F0001B6A724A23F0040313621CE07B68DB688D
:10820000052B0CD16D4B1B6A6C4A43F004031362BF
:108210006A4B1B6A694A43F0010313620BE0674B28
:108220001B6A664A23F001031362644B1B6A634AAC
:1082300023F0040313627B68DB68002B15D0FEF784
:1082400007FA38610AE0FEF703FA02463B69D31ADF
:1082500041F28832934201D90323ABE0574B1B6AAA
:1082600003F00203002BEED014E0FEF7F1F93861C1
:108270000AE0FEF7EDF902463B69D31A41F2883273
:10828000934201D9032395E04C4B1B6A03F0020390
:10829000002BEED1FB7D012B05D1484BDB69474A12
:1082A00023F08053D3617B68DB69002B00F0818071
:1082B000424B5B6803F00C03082B61D07B68DB69E1
:1082C000022B46D13F4B00221A60FEF7C1F93861FC
:1082D00008E0FEF7BDF902463B69D31A022B01D92B
:1082E000032367E0354B1B6803F00073002BF0D1CC
:1082F0007B681B6AB3F5803F08D1304B5B6823F481
:1083000000327B689B682D4913434B602B4B5B68A5
:1083100023F474127B68196A7B685B6A0B432749F4
:1083200013434B60274B01221A60FEF791F9386125
:1083300008E0FEF78DF902463B69D31A022B01D9FA
:10834000032337E01D4B1B6803F00073002BF0D0B4
:108350002FE01C4B00221A60FEF77AF9386108E022
:10836000FEF776F902463B69D31A022B01D90323A3
:1083700020E0124B1B6803F00073002BF0D118E0D3
:108380007B68DB69012B01D1012313E00B4B5B6898
:10839000FB60FB6803F480327B681B6A9A4206D15B
:1083A000FB6803F470127B685B6A9A4201D0012378
:1083B00000E0002318461837BD4680BD001002407B
:1083C000007000406000424280B584B000AF786029
:1083D00039607B68002B01D10123D0E06A4B1B6818
:1083E00003F007033A689A4210D9674B1B6823F0E1
:1083F000070265493B6813430B60634B1B6803F03E
:1084000007033A689A4201D00123B8E07B681B68F1
:1084100003F00203002B20D07B681B6803F00403E9
:10842000002B05D0594B5B68584A43F4E063536016
:108430007B681B6803F00803002B05D0534B5B6877
:10844000524A43F460535360504B5B6823F0F00290
:108450007B689B684D4913434B607B681B6803F046
:108460000103002B40D07B685B68012B07D1474B91
:108470001B6803F40033002B15D101237FE07B68D8
:108480005B68022B07D1414B1B6803F00073002B84
:1084900009D1012373E03D4B1B6803F00203002B5D
:1084A00001D101236BE0394B5B6823F003027B6849
:1084B0005B68364913434B60FEF7CAF8F8600AE080
:1084C000FEF7C6F80246FB68D31A41F2883293429F
:1084D00001D9032353E02D4B5B6803F00C027B684A
:1084E0005B689B009A42EBD1274B1B6803F00703A4
:1084F0003A689A4210D2244B1B6823F007022249A3
:108500003B6813430B60204B1B6803F007033A687A
:108510009A4201D0012332E07B681B6803F0040318
:10852000002B08D0194B5B6823F4E0627B68DB68A2
:10853000164913434B607B681B6803F00803002B4C
:1085400009D0124B5B6823F460527B681B69DB0027
:108550000E4913434B6000F021F802460B4B5B6859
:108560001B0903F00F030A49CB5C22FA03F3094A03
:108570001360094B1B681846FEF728F800231846BD
:108580001037BD4680BD00BF0020024000100240F1
:108590006CFC0008C4010020C801002090B48AB01F
:1085A00000AF2A4B3C1D0FCB84E80F0040F20123A3
:1085B0003B800023FB610023BB6100237B6200231F
:1085C0007B6100233B62224B5B68FB61FB6903F02C
:1085D0000C03042B02D0082B03D02DE01D4B3B6273
:1085E0002DE0FB699B0C03F00F0307F128021344F5
:1085F00013F8243C7B61FB6903F48033002B13D018
:10860000134B5B685B0C03F0010307F12802134472
:1086100013F8283CBB617B690E4A02FB03F2BB697D
:10862000B2FBF3F37B6204E07B690B4A02FB03F3CA
:108630007B627B6A3B6202E0064B3B6200BF3B6AA7
:1086400018462837BD4690BC704700BF14F8000894
:108650000010024000127A0000093D0080B400AF13
:10866000024B1B681846BD4680BC7047C401002001
:1086700080B500AFFFF7F2FF0246054B5B681B0AAF
:1086800003F007030349CB5C22FA03F3184680BDCD
:10869000001002407CFC000880B500AFFFF7DEFF51
:1086A0000246054B5B68DB0A03F007030349CB5C1A
:1086B00022FA03F3184680BD001002407CFC00083B
:1086C00080B485B000AF78600A4B1B680A4AA2FBF1
:1086D00003235B0A7A6802FB03F3FB6000BFFB68BD
:1086E0005A1EFA60002BF9D100BF00BF1437BD46F7
:1086F00080BC7047C4010020D34D621080B582B0A9
:1087000000AF78607B68002B01D1012376E07B68A5
:108710005B6A002B08D17B685B68B3F5827F09D068
:108720007B680022DA6105E07B6800221A617B68C1
:1087300000225A617B6800229A627B6893F851306C
:10874000DBB2002B06D17B68002283F850207868CA
:10875000FDF7C8FD7B68022283F851207B681B6807
:108760001A687B681B6822F040021A607B685B68AD
:1087700003F482727B689B6803F404431A437B68AA
:10878000DB6803F400631A437B681B6903F0020390
:108790001A437B685B6903F001031A437B689B699A
:1087A00003F400731A437B68DB6903F038031A4350
:1087B0007B681B6A03F0800342EA03017B689B6AC3
:1087C00003F400527B681B680A431A607B689B694C
:1087D0001A0C7B681B6802F004025A607B681B68F5
:1087E000DA697B681B6822F40062DA617B68002228
:1087F0005A657B68012283F8512000231846083708
:10880000BD4680BD80B588B000AFF860B9603B6000
:108810001346FB800023FB77FB6893F85030012B55
:1088200001D1022326E1FB68012283F85020FDF7E5
:108830000FFFB861FB88FB82FB6893F85130DBB215
:10884000012B02D00223FB770BE1BB68002B02D087
:10885000FB88002B02D10123FB7702E1FB68032296
:1088600083F85120FB6800225A65FB68BA681A63D6
:10887000FB68FA889A86FB68FA88DA86FB68002229
:108880009A63FB6800229A87FB680022DA87FB68FC
:1088900000225A64FB6800221A64FB689B68B3F5E7
:1088A000004F0FD1FB681B681A68FB681B6822F039
:1088B00040021A60FB681B681A68FB681B6842F478
:1088C00080421A60FB681B681B6803F04003402B62
:1088D00007D0FB681B681A68FB681B6842F04002FF
:1088E0001A60FB68DB68B3F5006F4BD1FB685B680F
:1088F000002B02D0FB8A012B3ED1FB681B6B1A8830
:10890000FB681B68DA60FB681B6B9A1CFB681A63C8
:10891000FB68DB8E9BB2013B9AB2FB68DA862BE0E8
:10892000FB681B689B6803F00203022B12D1FB68F3
:108930001B6B1A88FB681B68DA60FB681B6B9A1C50
:10894000FB681A63FB68DB8E9BB2013B9AB2FB6843
:10895000DA8611E0FDF77CFE0246BB69D31A3A685D
:108960009A4203D83B68B3F1FF3F02D13B68002B2A
:1089700002D10323FB7774E0FB68DB8E9BB2002BF4
:10898000CED14CE0FB685B68002B02D0FB8A012B48
:1089900040D1FB681A6BFB681B680C3312781A70A5
:1089A000FB681B6B5A1CFB681A63FB68DB8E9BB26F
:1089B000013B9AB2FB68DA862CE0FB681B689B6877
:1089C00003F00203022B13D1FB681A6BFB681B68D0
:1089D0000C3312781A70FB681B6B5A1CFB681A6305
:1089E000FB68DB8E9BB2013B9AB2FB68DA8611E032
:1089F000FDF72EFE0246BB69D31A3A689A4203D8A5
:108A00003B68B3F1FF3F02D13B68002B02D1032347
:108A1000FB7726E0FB68DB8E9BB2002BCDD1BA69D9
:108A20003968F86800F054FA0346002B02D0FB685E
:108A300020225A65FB689B68002B0AD100233B610A
:108A4000FB681B68DB683B61FB681B689B683B61DC
:108A50003B69FB685B6D002B02D00123FB7700E0D4
:108A600000BFFB68012283F85120FB68002283F8D5
:108A70005020FB7F18462037BD4680BD80B58CB0A6
:108A800000AFF860B9607A607B800123FB6200234D
:108A900087F82B30FB6893F85030012B01D102236B
:108AA0008AE1FB68012283F85020FDF7D1FD78624E
:108AB000FB6893F8513087F82330FB685B68FB61F3
:108AC0007B887B8397F82330012B0FD0FB69B3F5AC
:108AD000827F07D1FB689B68002B03D197F8233076
:108AE000042B03D0022387F82B305BE1BB68002BFB
:108AF00005D07B68002B02D07B88002B03D101239B
:108B000087F82B304EE1FB6893F85130DBB2042B31
:108B100003D0FB68052283F85120FB6800225A65C8
:108B2000FB687A689A63FB687A88DA87FB687A88D8
:108B30009A87FB68BA681A63FB687A88DA86FB68EA
:108B40007A889A86FB6800221A64FB6800225A64BD
:108B5000FB681B681B6803F04003402B07D0FB68D1
:108B60001B681A68FB681B6842F040021A60FB68C9
:108B7000DB68B3F5006F78D1FB685B68002B02D02F
:108B80007B8B012B66D1FB681B6B1A88FB681B680B
:108B9000DA60FB681B6B9A1CFB681A63FB68DB8E50
:108BA0009BB2013B9AB2FB68DA8653E0FB681B6814
:108BB0009B6803F00203022B1BD1FB68DB8E9BB288
:108BC000002B16D0FB6A012B13D1FB681B6B1A8894
:108BD000FB681B68DA60FB681B6B9A1CFB681A63F6
:108BE000FB68DB8E9BB2013B9AB2FB68DA860023FE
:108BF000FB62FB681B689B6803F00103012B19D122
:108C0000FB68DB8F9BB2002B14D0FB681B68DA6813
:108C1000FB689B6B92B21A80FB689B6B9A1CFB688B
:108C20009A63FB68DB8F9BB2013B9AB2FB68DA87E1
:108C30000123FB62FDF70CFD02467B6AD31ABA6B77
:108C40009A4207D8BB6BB3F1FF3F03D0032387F8E9
:108C50002B30A7E0FB68DB8E9BB2002BA6D1FB6814
:108C6000DB8F9BB2002BA1D17CE0FB685B68002B03
:108C700002D07B8B012B6BD1FB681A6BFB681B68E6
:108C80000C3312781A70FB681B6B5A1CFB681A6352
:108C9000FB68DB8E9BB2013B9AB2FB68DA8657E039
:108CA000FB681B689B6803F00203022B1CD1FB6866
:108CB000DB8E9BB2002B17D0FB6A012B14D1FB6813
:108CC0001A6BFB681B680C3312781A70FB681B6BFD
:108CD0005A1CFB681A63FB68DB8E9BB2013B9AB29D
:108CE000FB68DA860023FB62FB681B689B6803F065
:108CF0000103012B19D1FB68DB8F9BB2002B14D031
:108D0000FB681B68DA68FB689B6BD2B21A70FB6861
:108D10009B6B5A1CFB689A63FB68DB8F9BB2013B21
:108D20009AB2FB68DA870123FB62FDF791FC0246E9
:108D30007B6AD31ABA6B9A4203D8BB6BB3F1FF3F7D
:108D400002D1BB6B002B03D1032387F82B3029E022
:108D5000FB68DB8E9BB2002BA2D1FB68DB8F9BB242
:108D6000002B9DD17A6AB96BF86800F0B1F8034620
:108D7000002B06D0012387F82B30FB6820225A6590
:108D800010E0FB689B68002B0BD100237B61FB6824
:108D90001B68DB687B61FB681B689B687B617B6988
:108DA00000E000BFFB68012283F85120FB6800222D
:108DB00083F8502097F82B3018463037BD4680BDD9
:108DC00080B588B000AFF860B9603B601346FB71B6
:108DD000FDF73EFC0246BB6A9B1A3A681344FB61EE
:108DE000FDF736FCB861394B1B685B011B0DFA6956
:108DF00002FB03F37B6154E03B68B3F1FF3F50D0CB
:108E0000FDF726FC0246BB69D31AFA699A4202D9D9
:108E1000FB69002B3DD1FB681B685A68FB681B6827
:108E200022F0E0025A60FB685B68B3F5827F11D1E3
:108E3000FB689B68B3F5004F04D0FB689B68B3F5F3
:108E4000806F07D1FB681B681A68FB681B6822F0FB
:108E500040021A60FB689B6AB3F5005F0FD1FB68A4
:108E60001B681A68FB681B6822F400521A60FB68D2
:108E70001B681A68FB681B6842F400521A60FB68A2
:108E8000012283F85120FB68002283F8502003233D
:108E900017E07B69002B01D10023FB617B69013B5B
:108EA0007B61FB681B689A68BB681340BA689A428A
:108EB0000CBF01230023DBB21A46FB799A429BD1F7
:108EC000002318462037BD4680BD00BFC4010020E6
:108ED00080B586B002AFF860B9607A607B680093B5
